:020000040801F1
:10000000780B0020C10101085F03010857030108B4
:100010005B030108CF020108A105010800000000F0
:100020000000000000000000000000008B03010839
:100030005503010800000000890301088D03010831
:10004000DB010108DB010108DB010108DB0101081C
:10005000DB010108DB010108DB010108DB0101080C
:10006000DB010108DB010108DB010108DB010108FC
:10007000DB010108DB010108DB010108DB010108EC
:10008000DB010108DB010108DB010108DB010108DC
:10009000D5020108DB010108DB010108DB010108D1
:1000A000DB010108DB010108DB010108DB010108BC
:1000B000DB010108DB010108DB010108DB010108AC
:1000C000DB010108DB010108DB010108DB0101089C
:1000D000DB01010811050108DB010108DB01010852
:1000E000DB010108DB010108DB010108DB0101087C
:1000F000DB010108DB010108DB010108DB0101086C
:10010000DB010108DB01010865040108DB010108CE
:1001100081040108DB010108DB010108DB010108A2
:10012000DB010108DB010108DB010108DB0101083B
:10013000DB010108DB010108DB010108DB0101082B
:1001400015030108DB010108DB010108DB010108DF
:10015000DB010108DB010108DB010108DB0101080B
:10016000DB010108DB010108DB010108DB010108FB
:10017000DB010108DB010108DB01010800000000D0
:10018000DB010108DB010108DB010108DB010108DB
:10019000DB010108DB010108DB01010800000000B0
:1001A000DB010108DB010108DB010108DFF80CD0ED
:1001B00000F05CF80048004779230108780B002024
:1001C0000648804706480047FEE7FEE7FEE7FEE7F1
:1001D000FEE7FEE7FEE7FEE7FEE7FEE79503010820
:1001E000AD01010840EA01039B0703D009E008C9FB
:1001F000121F08C0042AFAD203E011F8013B00F8EC
:10020000013B521EF9D270472DE9F05F05460020F0
:1002100092469B4688460646814640241BE0284677
:1002200041464746224600F042F853465A46C01A15
:10023000914110D311461846224600F029F82D1A94
:1002400067EB01084F4622460120002100F020F80C
:1002500017EB00094E41201EA4F10104DFDC4846E3
:1002600031462A464346BDE8F09F0000064C074D44
:1002700006E0E06840F0010394E807009847103476
:10028000AC42F6D3FFF796FF24330108443301084C
:10029000202A04DB203A00FA02F100207047914046
:1002A000C2F1200320FA03F3194390407047202A3B
:1002B00004DB203A21FA02F00021704721FA02F310
:1002C000D040C2F12002914008431946704700BF58
:1002D000FEE7000010B50B4A00210B4800F0DFFEDE
:1002E00000200A4908700748007A38B90548807A22
:1002F000082803D101200649087002E001200349C3
:10030000087010BD4C0700200064004072000020FF
:100310007000002010B50B4A00210B4800F0BFFE12
:1003200000200A4908700748007A38B90548807AE1
:10033000082803D101200649087002E00120034982
:10034000087010BD600700200068004073000020A6
:1003500071000020704700BFFEE700BFFEE7704756
:1003600010B5002807DA0A07140E054A00F00F033B
:100370001B1FD45403E00A07130E024A135410BD86
:1003800018ED00E000E400E07047704710B501F0A0
:1003900039F910BD08B52F48006840F470002D49A8
:1003A00008602D48006840F001002B49086000BF3C
:1003B0002948006810F0020FFAD000BF2648083024
:1003C000006840F080002449083108600020009057
:1003D00002E00098401C009000985028F9D31E4875
:1003E0000830006840F090001B4908310860002088
:1003F000009002E00098401C009000985028F9D32B
:1004000000BF15480830006820F003001249083189
:10041000086011480068114908400F490860084603
:10042000006820F48020086000200B490831086033
:1004300000BF09480830006800200028F9D10848AA
:100440000549091D0860002003490C31086002F0CD
:1004500039FB08BD88ED00E000380240FFFFF6FEE2
:10046000103000246FF00100034908600348008841
:10047000401C024908807047100C004078000020A2
:1004800010B505210E4802F014FFC0B10C4802F06F
:1004900093FEC1B20B480468601C0A4A10600A4807
:1004A000015510460068C82802D300201146086094
:1004B0000649034802F019FF01200549086010BDF4
:1004C000004C0040340000207006002005030500A9
:1004D0003800002070B505460E4600240CE0295D6A
:1004E0000A4802F06EFE00BF0721084802F0E1FE54
:1004F0000028F9D0601CC4B2B442F0DB00BF062172
:10050000024802F0D6FE0028F9D070BD004C004031
:1005100010B505210E4802F0CCFEC0B10C4802F027
:100520004BFEC1B20B480468601C0A4A10600A48BE
:10053000015510460068C82802D300201146086003
:100540000649034802F0D1FE01200549086010BDAC
:10055000001001402C000020A80500200503050024
:100560003000002070B505460E4600240CE0295DE1
:100570000A4802F026FE00BF0721084802F099FE53
:100580000028F9D0601CC4B2B442F0DB00BF0621E1
:10059000024802F08EFE0028F9D070BD0010014024
:1005A00000BFFEE70FB4054B10B503A9044A02983B
:1005B00000F094F910BC5DF814FB0000BD1F0108A9
:1005C0009800002002E008C8121F08C1002AFAD1D2
:1005D00070477047002001E001C1121F002AFBD1C3
:1005E0007047000000B589B006A9002000F0ACFEFD
:1005F00001A9012000F0A8FE2F4800F019FC2F48A7
:1006000000F016FC00208DF81C0001208DF81D0064
:1006100000208DF81E0001208DF81F0000208DF8AD
:1006200020008DF821008DF818008DF819000620A3
:100630008DF81A0001208DF81B000A20ADF8220069
:1006400006A91D4800F096FC06A91C4800F092FC83
:100650000020ADF80E00ADF810000120ADF812003A
:100660000020ADF80400ADF80600ADF80800ADF8C4
:100670000A00ADF80C0001208DF8140001A800F06C
:10068000F1FB0F20ADF80E0001A800F0EBFB0022FB
:100690001146142002F00EF801221146402002F00B
:1006A00009F80221044800F0F6FC0221034800F09A
:1006B000F2FC09B000BD000000640040006800408A
:1006C00010B541F2190002F0FFF841F21A0002F0F1
:1006D000FBF840F6014002F0F7F840F6034002F064
:1006E000F3F84FF4005302220021234801F002FDE9
:1006F0004FF40053002202211F4801F0D4FC4FF4B4
:10070000005209211C4801F097FC4FF4805302224B
:100710000021194801F0EEFC4FF480530022022121
:10072000154801F0C0FC4FF480520921124801F035
:1007300083FC02231A4600210F4801F0DBFC022350
:10074000002219460D4801F0AEFC022209210B4897
:1007500001F072FC012302220021074801F0CAFCCB
:10076000012300220221054801F09DFC01220921FC
:10077000024801F061FC10BD00040240000C024080
:1007800070B505463848854201D1002403E037485A
:10079000854200D10124364931F8140002F094F862
:1007A000344931F8140002F08FF8334B53F8242009
:1007B000324B53F82410324B53F8240001F03CFC28
:1007C000304B53F824202D4B53F824102C4B53F866
:1007D000240001F031FC284951F82430284951F80F
:1007E00024000122022101F05EFC234951F824304B
:1007F000234951F824000222002101F07BFC214909
:1008000051F824301E4951F824000122022101F040
:100810004AFC1C4951F82430194951F8240002229D
:10082000002101F067FC284602F0D0FC164850F881
:100830002410284602F04CFC0421284602F062FDF8
:100840000821284602F066FD284602F02DFD0F4AD9
:10085000115D0F4A105D002201F02CFF40F20531BE
:10086000284602F035FD70BD00100140004C0040EC
:10087000400000203C0000204C00002044000020EC
:100880005C00002054000020640000206E00002066
:100890006C00002010B50D480068B0B901200B496C
:1008A000086000240FE00A4931F8140002F00CF847
:1008B000084951F82430084951F824000022114613
:1008C00001F0F1FB641C022CEDDB10BD9000002058
:1008D0008C000020840000207C0000202DE9FF4FC8
:1008E0008DB00F4605460026DEE1252874D1002490
:1008F0006D1CF149A246A14601222B78203B02FA49
:1009000003F0084202D004436D1CF6E728782A2839
:1009100010D06FF02F022878A0F13001092915D8E6
:100920000AEB8A0102EB410144F0020400EB010AE8
:100930006D1CF0E757F804ABBAF1000F03DA44F48A
:100940000054CAF1000A44F002046D1C28782E28D5
:1009500017D115F8010F44F004042A280ED06FF0C7
:100960002F022878A0F1300109290AD809EB890162
:1009700002EB410100EB01096D1CF2E757F8049B03
:100980006D1C28786C280FD006DC4C2817D06828FE
:100990000DD06A2814D104E0742810D07A280FD121
:1009A0000DE044F400140AE044F4801401E044F43F
:1009B00040146978814202D16D1C04F580146D1CCD
:1009C0002A786E2A20D00DDC632A33D005DC002A79
:1009D0006FD0582A12D1A2E011E0642A6AD0692AA5
:1009E0000CD167E0732A2FD004DC6F2A6FD0702AF5
:1009F00004D199E0752A6BD0782A6AD01046DDE9D7
:100A00000F129047761C4EE1C4F30250022806D024
:100A100003280AD0042801CF0AD0066043E101CFA1
:100A20004FEAE671C0E900613DE101CF06803AE19D
:100A3000067038E117F8040B8DF8000000208DF8DF
:100A40000100EB46012003E057F804BB4FF0FF30F4
:100A500061074FF0000102D40DE008F10101884662
:100A600049450FDA8045F8DB1BF808100029F4D15E
:100A700008E008F1010188468142FADB1BF8081002
:100A80000029F6D1DDE90F23AAEB080081462146B3
:100A900000F03BF9304400EB080604E0DDE90F12FA
:100AA0001BF8010B9047B8F10108F7D221464846E0
:100AB000F4E0FDE00A21C4F302534FF0000B08916B
:100AC000022B07D001CFC117032B09D00AE034E075
:100AD00023E024E0FF1D27F00707F7E8020105E007
:100AE00000B2C117042B01D140B2C117002907DAA7
:100AF0004FF0000CD0EB0C006CEB01012D2302E059
:100B0000230504D52B238DF82430012303E0E307CC
:100B100001D02023F7E7984650E00A210EE010208C
:100B20004FF0000B08900CE010214FF0000B44F048
:100B300004044FF00809089103E008214FF0000B6E
:100B40000891C4F30253022B04D001CF0021032BE0
:100B500006D006E0FF1D27F00707F7E8020103E0D3
:100B600080B2042B00D1C0B24FF00008230725D576
:100B7000702A2AD0DDF820C08CF0100C5CEA0B0C37
:100B800009D150EA010306D030238DF824308DF8C6
:100B9000252002239846DDF820C08CF0080C5CEA82
:100BA0000B0C0BD150EA010301D1630706D53023AA
:100BB0008DF824304FF00108A9F10109582A09D015
:100BC0003EA20B9208AA0A9211E040238DF824302D
:100BD0000123DFE73EA2F4E75B46089AFFF714FB28
:100BE0000B9B9B5C0A9AA2F101020A92137050EAD5
:100BF0000102F1D10A98ADEB000000F1200B600773
:100C000002D524F4803401E04FF00109D94502DD1A
:100C1000A9EB0B0000E0002000EB0B014144089021
:100C2000AAEB010AE00306D4DDE90F232146504672
:100C300000F06BF80644002008E009A911F809004B
:100C4000DDE90F129047761C09F10100814640450D
:100C5000F3DBE0030CD5DDE90F232146504600F01D
:100C600054F8064404E0DDE90F1230209047761C6A
:100C70000899481E08900029F5DC08E00A980A99AE
:100C80000078491C0A91DDE90F129047761CBBF1F0
:100C90000001ABF1010BF1DC21465046DDE90F23E9
:100CA00000F020F806446D1C287800287FF41DAE63
:100CB00011B03046BDE8F08F0928010030313233E1
:100CC0003435363738396162636465660000000088
:100CD0003031323334353637383941424344454672
:100CE000000000002DE9F041044600251E4617468D
:100CF000880405D406E039462020B04705F10105F7
:100D0000641EF8D52846BDE8F0812DE9F04104467F
:100D100000251E469046C80301D5302700E0202755
:100D2000880405D506E041463846B04705F101057F
:100D3000641EF8D52846BDE8F08100B97047052249
:100D40008178C91C425400BFF8E710B5044601F091
:100D5000BDFE4CB9062001F0A1FC4FF48031C80261
:100D600001F014FD62B60BE0012C08D1062001F061
:100D700095FC0021E00601F009FD62B600E010BD1F
:100D800000BFFCE710B504460E4931F8140001F02D
:100D90009BFD0D4951F824300C4951F824000022E4
:100DA000012101F080F9084951F82430074951F830
:100DB00024000222002101F09DF9204600F008F8ED
:100DC00010BD00002800002024000020200000208A
:100DD000034951F82010034A52F8202091617047CE
:100DE0002400002020000020034951F82010034A6D
:100DF00052F820209162704724000020200000203B
:100E000010B50020064908700649087006490870A8
:100E100006490870FFF754FCFFF7E4FB10BD000023
:100E2000700000207100002072000020730000207C
:100E300010B504460A48844208D140F6190001F072
:100E400063FD40F6190001F04FFD07E040F61A007F
:100E500001F05AFD40F61A0001F046FD10BD0000F9
:100E60000064004010B50021837A012202FA03F1E8
:100E70003E4A126842F001023C4B1A603B4A1C3267
:100E800012688A43394B1C331A60C289DAB9374A6F
:100E90000C3212688A43354B0C331A60C288344BCB
:100EA00003EA024243881A434389304C403444F8F1
:100EB000332082882E4B03EA024203881A43438977
:100EC00004EBC3035A60C289012A1BD1274A0C32A2
:100ED00012680A43254B0C331A600288244B03EA3C
:100EE000024243881A434389204C403444F833205B
:100EF00082881F4B03EA0242C3881A43438904EBEA
:100F0000C3035A6082893AB9184A121D12688A438B
:100F1000164B1B1D1A6006E0144A121D12680A4384
:100F2000124B1B1D1A6002893AB9104A143212681A
:100F30008A430E4B14331A6006E00C4A14321268CE
:100F40000A430A4B14331A60027C012A06D1074A6D
:100F50001C3212680A43054B1C331A60034A12689C
:100F600022F00102014B1A6010BD00000066004033
:100F70000000FFFF70B502464FF6FF7300201468B3
:100F800024F002041460146844F00104146000E0CA
:100F90005B1E546814F0010F01D1002BF8D1546886
:100FA00014F0010F01D1002074E00C784FF040459F
:100FB00005EA84744D784FF0407606EA05652C43C7
:100FC0008D784FF4702606EA05452C43CD784FF412
:100FD000E00606EA05552C434D896D1EC5F309054B
:100FE0002C43D4610C79012C04D1146844F08004A2
:100FF000146003E0146824F0800414604C79012C20
:1010000004D1146844F04004146003E0146824F030
:10101000400414608C79012C04D1146844F020043D
:10102000146003E0146824F020041460CC79012CCF
:1010300004D1146824F01004146003E0146844F030
:10104000100414600C7A012C04D1146824F00804F4
:10105000146003E0146844F0080414604C7A012C16
:1010600004D1146844F00404146003E0146824F00C
:1010700004041460146824F0010414604FF6FF7334
:1010800000E05B1E546814F0010F01D0002BF8D172
:1010900003B1012070BD42690A434261704710B537
:1010A00000F5D87303EB01131B6803F004031372FC
:1010B000137A3BB900F5D87303EB01131B685B0D82
:1010C000136006E000F5D87303EB01131B68DB081F
:1010D000536000F5D87303EB01131B6803F00203A0
:1010E000537200F5DA7303EB01131B681B0AD37408
:1010F00000F5DA7303EB01131B6803F00F0393721F
:1011000000F5DC7303EB01131B68D37200F5DC738D
:1011100003EB01131B681C0A147300F5DC7303EB6B
:1011200001131B681C0C547300F5DC7303EB0113F3
:101130001B681C0E947300F5DE7303EB01131B6830
:10114000D37300F5DE7303EB01131B681C0A1474E0
:1011500000F5DE7303EB01131B681C0C547400F5DF
:10116000DE7303EB01131B681C0E947421B9C36872
:1011700043F02003C36003E0036943F020030361ED
:1011800010BD000030B502460B460021906800F00B
:101190008060B0F1806F00D110E0906800F00060D6
:1011A000B0F1006F01D1012108E0906800F080509B
:1011B000B0F1805F01D1022100E00321032901D1B8
:1011C000032030BD02F5C07000EB0110006800F094
:1011D000010402F5C07000EB01100460187A88B9B0
:1011E00018883B4C04EA40505C7A204302F5C074F6
:1011F00004EB01142468204302F5C07404EB0114CD
:10120000206013E06FF00704586804EAC0001C7AFD
:1012100020435C7A204302F5C07404EB0114246877
:10122000204302F5C07404EB0114206002F5C27083
:1012300000EB0110006820F00F0402F5C27000EB13
:101240000110046002F5C27000EB011000689C7A86
:10125000204302F5C27404EB01142060987B4FF028
:101260007F4404EA00605C7B4FF47F0505EA044498
:1012700020431C7B2D1205EA04242043DC7A204302
:1012800002F5C47404EB01142060987C2C0404EA79
:1012900000605C7C2D0205EA044420431C7C2D1276
:1012A00005EA04242043DC7B204302F5C67404EBEA
:1012B0000114206002F5C07000EB0110006840F0DE
:1012C000010402F5C07000EB01100460084678E7E5
:1012D0000000E0FF2DE9F04781460D4616461F4607
:1012E0004FF6FF784FF0000A1648056000201549B8
:1012F0004860487208720820887200240BE0BC42E3
:1013000004DA315D0F480B30015503E000210D4830
:101310000B300155641C0B48807AA042EFDC094970
:101320004846FFF72FFF824601E0A8F10108514629
:10133000484600F05BF8012802D0B8F1000FF4D164
:10134000BDE8F0873807002010B5024609B900BF94
:10135000FEE732B1012A16D0022A20D0032A41D159
:101360002EE000234B71CB718B7140F2FF334B8128
:1013700000230B724B7002238B700023CB700B7118
:101380004B720B7030E00123CB8100230B740B8177
:101390000B804B808B80CB808B814B8124E00020A5
:1013A00005E0002401F10B031C54431CD8B20828AB
:1013B000F7D300238B724B600B724B720B6013E000
:1013C000002005E0002401F10B031C54431CD8B29B
:1013D0000828F7D300238B724B600B72CB744B72CF
:1013E0000B6001E000BFFEE700BF10BD30B5024654
:1013F0000020002321B1012907D002290FD109E0E3
:101400009468144D04EA05030BE09468124D04EA55
:10141000050306E09468114D04EA050301E000238A
:1014200000BF00BF53B1A3F18064E41E08D00C4D8F
:10143000641907D00B4D641908D105E0022007E0BC
:10144000012005E0012003E0012001E0002000BFB1
:1014500000BF30BD030000040003000800000310BB
:1014600003FDFFFB0003FDF7014611B94FF0FF300C
:1014700070470878012802D04FF0FF30F8E78878ED
:10148000C01C085C052802D04FF0FF30F0E70020B8
:10149000EEE7000010B50348FFF772F90248FFF7C6
:1014A0006FF910BD00100140004C004070B50446BB
:1014B0000E4615460748844203D1E9B23046FFF78D
:1014C00051F80548844203D1E9B23046FFF702F8EB
:1014D00070BD000000100140004C00402DE9F047B5
:1014E00005460C464FF000084FF00A09002714B9D2
:1014F0000020BDE8F0872648854221D125480068B4
:1015000008B90020F5E7244806680CE038467F1C3F
:10151000142800D108E0484600F04AF81E48006848
:10152000864200D100E0F1E700BF002019490860C1
:10153000DFF86880184800682060002016490860BD
:101540001748854221D11748006808B90020D0E724
:10155000154806680CE038467F1C142800D108E0C6
:10156000484600F025F810480068864200D100E0A7
:10157000F1E700BF00200B490860DFF830800A481F
:10158000006820600020084908604046B1E700007C
:1015900000100140300000202C000020A805002091
:1015A000004C00403800002034000020700600206D
:1015B0000349086000BF024909680029FBD1704750
:1015C0000000002000210D4A11600C4924390968EF
:1015D00041F00101094A243A11600021084A1180B2
:1015E00000BF074909888142FBDB044924390968A7
:1015F00021F00101014A243A11607047240C004097
:10160000780000200448006820B103480068401EAC
:101610000149086070470000000000201FB541F23A
:10162000030001F051F9164801F0E2FB0020ADF88B
:101630000000ADF80200ADF80400124800684FF455
:101640007A71B0FBF1F0B0FBF1F0401E0290002087
:10165000ADF806008DF80C006946094801F08EFCD3
:101660000121074801F0D6FC00220221322001F0BE
:1016700021F80348006820F00100014908601FBDFF
:10168000000C00409400002030B503460D4613B90D
:101690000822094C06E0012B02D10822074C01E088
:1016A000002030BD002102E0605C6854491C91427A
:1016B000FADBD0B2F5E7000008000020100000209F
:1016C00010B500F08FF90E48006840F400600C4936
:1016D000086000F017F80A481038006840F480608D
:1016E00007491039086000F00DF805481038006807
:1016F00040F4006002491039086000F003F810BDA2
:101700002804024010B50120FFF75CFF10BD000067
:1017100010B51448006840F4806012490860FFF773
:10172000F1FF00F053F90F481038006840F4806072
:101730000C4910390860FFF7E5FF0A4818380068BF
:1017400010F4006F01D0012400E000240548006877
:1017500040F4806003490860FFF7D4FF00F042F9CD
:10176000204610BD2804024010B5044600F03AF9A6
:101770001648006840F4806014490860FFF7C2FF13
:1017800034B91248006840F400601049086007E06E
:101790000E481038006840F400600C4910390860A9
:1017A000FFF7B0FF09481038006840F4806007492F
:1017B00010390860FFF7A6FF0448006840F4806015
:1017C00002490860FFF79EFF10BD00002804024098
:1017D00070B506461848006840F4806016490860F5
:1017E000FFF790FF00F0F2F800251DE012481038D6
:1017F000006840F48060104910390860FFF782FFEC
:101800006006040E0C481838006810F4006F01D010
:1018100044F001040848006840F48060064908600C
:10182000FFF770FF681CC5B2082DDFDB3046FFF7FD
:101830009BFF204670BD0000280402402DE9F047C0
:101840000546884616461F4600F0DEF8AA46504672
:1018500000F004F98146B9F1010F07D1514628A0E3
:10186000FEF7A0FEFFF72CFFBDE8F087514632A03F
:10187000FEF798FE08F0FF0000F0F0F88146B9F19D
:10188000010F07D1FFF71CFF08F0FF0131A0FEF7A1
:1018900089FEE9E700F0B8F845F0010A504600F08B
:1018A000DDF88146B9F1010F06D1FFF709FF514676
:1018B00035A0FEF777FED7E7002405E00020FFF70C
:1018C00087FF3055601CC4B2781EA042F6DC0120B0
:1018D000FFF77EFFF11901F8010CFFF7F1FE33A0CD
:1018E000FEF760FE002405E0315D34A0FEF75AFEED
:1018F000601CC4B2781EA042F6DC00BFB4E7000052
:101900007374617274206472695F6932635F7265B7
:1019100061645F6E627974652062757420736C61B6
:10192000766541646472206E6F742061636B205B26
:1019300025785D0D0A00000053746172742C2067D5
:101940006F7420414444525B25785D2041434B0D28
:101950000A00000073656E64206472695F69326317
:101960005F726561645F6E62797465206275742070
:1019700072656761646472206E6F742061636B20AE
:101980005B25785D0D0A000053656E642052656129
:1019900064206275742061646472205B25785D2028
:1019A0006E6F742041434B0D0A0000006472695F42
:1019B0006932635F73746F700D0A00005265616471
:1019C000204F4B3A2025780D0A00000010B54FF447
:1019D000006300221146024800F065FB10BD0000C4
:1019E0000004024010B54FF40063002201210548B5
:1019F00000F059FB4FF4006302220021014800F07F
:101A000079FB10BD0004024010B5FFF7EBFF124850
:101A1000006840F4806010490860FFF773FE0E48CC
:101A2000006840F400600C490860FFF76BFE0A484C
:101A30001030006840F40060074910310860FFF77B
:101A400061FE05481030006840F4806002491031A2
:101A50000860FFF757FE10BD1804024070B5044639
:101A6000FFF7C0FF002529E01B48006840F48060B4
:101A700019490860FFF746FE14F0800F08D0164899
:101A80001038006840F4006013491039086005E020
:101A90001148006840F400600F4908606006040EB9
:101AA000FFF730FE0C481038006840F480600A49A7
:101AB00010390860FFF726FE681CC5B2082DD3DB7D
:101AC0000548006840F4806003490860FFF71AFE8B
:101AD000FFF71EFE70BD0000280402402DE9F0470C
:101AE00006460F4690469946FFF78EFFB24650468F
:101AF000FFF7B4FF0446012C07D1FFF7E1FD2146B3
:101B000017A0FEF74FFDBDE8F08751461BA0FEF77A
:101B100049FDF8B2FFF7A2FF0446012C05D11EA033
:101B2000FEF740FDFFF7CCFDEDE700250EE018F8CD
:101B30000500FFF793FF0446012C05D1FFF7C0FD18
:101B400020A0FEF72FFDDEE7681CC5B24D45EEDB99
:101B5000FFF7B6FD26A0FEF725FD00BFD3E7000086
:101B60004932435F5772697465427974655F4949C8
:101B7000435F414444522025640D0A00537461724E
:101B8000742C20676F7420414444525B25785D209B
:101B900041434B0D0A0000004932435F577269749C
:101BA00065427974655F4949435F4144445220620C
:101BB000757420726567206E6F742061636B0D0A07
:101BC000000000004932435F5772697465427974BE
:101BD000655F4949435F4144445220627574206403
:101BE000617461206E6F742061636B0D0A000000E8
:101BF000575F6472695F6932635F73746F700D0A57
:101C00000000000001490860704700000C3C0240E1
:101C10000348006840F00040014908607047000038
:101C2000103C024010B50346012400BF00F0FCF850
:101C300004465B1E012C01D1002BF7D103B9072408
:101C4000204610BD30B5044600256FF03040FFF748
:101C5000E9FF05460DBB1248006820F0F800104966
:101C600008600846006844F0020108430C49086017
:101C70000846006840F4803008606FF03040FFF79D
:101C8000D1FF05460648006820F0020004490860BC
:101C90000846006820F0F8000860284630BD0000C3
:101CA000103C024070B586B006460D460024B5F1E2
:101CB000006F7DD3574800884FF0006101EB802012
:101CC000401EA842F5D3B5F1016F38D2A5F10060EE
:101CD000840B042C10D20194F82000EAC400029076
:101CE00048130390A00300F100600490049800F5ED
:101CF0008040401E059085E0082C0AD20420019007
:101D000020200290C002039043480490434805906D
:101D100078E0A5F10060440C201D0190F82101EA53
:101D2000C00002904FF400300390600400F10060A6
:101D30000490049800F50030401E059062E0A5F183
:101D40000160840B042C14D204F10C000190001DDE
:101D5000F82101EAC00002904FF480400390A003F4
:101D600000F100600490049800F58040401E05904A
:101D700048E0082C0BD210200190A02002904FF4D4
:101D80008030039026480490264805903AE0402C85
:101D900019D2A5F10160440C04F110000190001D5E
:101DA000F82101EAC00002904FF40030039000E0F7
:101DB00021E0600400F101600490049800F5003017
:101DC000401E05901EE0A5F10160840C04F1140092
:101DD00001900C38F82101EAC00002904FF48020F5
:101DE0000390A00400F101600490049800F58020A5
:101DF000401E059006E04FF0FF30019002900390E6
:101E000004900590142201A93046FEF7EBF906B0C4
:101E100070BD0000227AFF1F00000108FFFF0108CB
:101E200000001108FFFF11080020114A116811F489
:101E3000803F01D0012019E011F4807F01D0022001
:101E400014E011F0800F01D003200FE011F0400FDB
:101E500001D004200AE011F0100F01D0052005E0A8
:101E600011F0020F01D0062000E0002070470000B2
:101E70000C3C02400548006810F0004F05D00448B3
:101E800002490C390860034808607047103C024062
:101E900023016745AB89EFCD70B504460D4600269A
:101EA0006FF03040FFF7BEFE0646DEB90E48006810
:101EB00020F440700C4908600846006840F4007047
:101EC00008600846006840F00100086025606FF077
:101ED0003040FFF7A7FE06460348006820F00100E7
:101EE00001490860304670BD103C02402DE9F041C8
:101EF00090B005460E46174622A0FEF753FBFFF7AB
:101F0000B9FFD320FFF77EFE294601A8FFF7CAFEDE
:101F1000142201A90BA8FEF765F9042000FB065165
:101F200001A8FFF7BFFE142201A906A8FEF75AF97F
:101F30000B9C0AE0204600F009FD80464046FFF772
:101F400081FE08B100BFFEE7641C0698A042F1D2F2
:101F500000240AE057F824102846FFF79DFF08B92F
:101F60002D1D01E000BFFEE7641CB442F2D3FFF771
:101F70004FFE0CA0FEF716FB0FA0FEF713FB10B0F0
:101F8000BDE8F0810D0A464D4320776F72642070E2
:101F9000726F6772616D65206F7065726174696FD1
:101FA0006E3A0A000D0A577269746520636F6D708E
:101FB0006C657465210A00000D0A000070B50446C6
:101FC0000D46E1B2054801F0FCF800BF07210348C7
:101FD00001F06FF90028F9D0204670BD00100140D3
:101FE00000B97047FE21417002218170DE21C1706D
:101FF000AD21017100BFF4E770B50025FEF74AFC82
:1020000000240DE0084A52F82410084A52F824002F
:1020100000F041F818B10120A0402843C5B2641C6B
:10202000022CEFDB284670BD840000207C000020DD
:102030000048704722032320F0B503461C6A5D6AFE
:1020400000200DE001268640164207D087000F26AB
:10205000BE40B443860001FA06F63443461CB0B2D3
:102060000828EFD3082011E00126864016420BD045
:10207000A0F10806B7000F26BE40B543A0F1080640
:10208000B60001FA06F63543461CB0B21028EBD371
:102090001C625D62F0BD02461069084201D0012059
:1020A00070470020FCE7F0B504460D46164621684F
:1020B000E268002019E0012787401F4213D04FEA51
:1020C000400C032707FA0CF7B943470005FA07F756
:1020D00039434FEA400C032707FA0CF7BA4347008D
:1020E00006FA07F73A43471CB8B21028E3D3216039
:1020F000E260F0BDF0B50C461546012C03D14668F0
:102100001E43466002E046689E43466082680021A6
:102110000DE001268E401E4207D04F000326BE4030
:10212000B2434E0005FA06F632434E1CB1B21029F6
:10213000EFD38260F0BD00002DE9F04706468846E7
:102140002EB1B8F1000F02D0B8F5806F02D900208F
:10215000BDE8F087002703E000208049C8557F1CB8
:10216000B7F5806FF8DB96F8019096F802A0F41CA2
:102170007A487B494860012078490870084680F811
:102180000190002088703046FFF76EF900B1DDE065
:10219000B9F1210F75D011DCB9F1110F37D006DC80
:1021A000B9F1010F1CD0B9F1020F6BD127E0B9F1E1
:1021B000120F3CD0B9F1130FF7D152E0B9F1810FF2
:1021C00079D006DCB9F1220F78D0B9F1230FECD128
:1021D00084E0B9F1820F70D0B9F1880FE5D199E0B0
:1021E00004205E498870FFF723FF0546280E5B49EF
:1021F000C870280C0871280A48718D719BE0012075
:1022000056498870FFF7F8FE5449C87093E00120E2
:10221000524988706178207800F0EEF818B10120FA
:102220004E49C87002E000204C49C87083E0207815
:1022300028B94FF4FA71002000F01AFA0BE0207868
:1022400028B94FF4FA71012000F012FA03E04FF4BC
:10225000FA7000F000FA0120404988700020C87030
:1022600069E0207828B94FF4FA71002000F0DEF917
:102270000DE0207838B94FF4FA71012000F0D6F95A
:1022800005E00AE053E04FF4FA7000F093F9012002
:10229000324988700020C8704DE020782F49C91C51
:1022A000FFF7F2F92D4988700846807810B9084682
:1022B000FFF796FE3FE017E000E022E0002027490C
:1022C0008870AAF10102D3B261782078A21C00F0D4
:1022D00055FB10B92148FFF783FE2CE001201F4970
:1022E00088700020C87026E001201C498870207882
:1022F00018B90020FEF778FD02E00020FEF768FD27
:1023000019E00120154988700020C8700120154986
:10231000086010E00120114988700020C870012079
:10232000104908601048006800F056F803E00B48B8
:10233000FFF756FE00BF00BF0848FEF7FEFC074847
:102340008078001D06498860084601E70348FFF7CA
:1023500047FE0248FEF7F1FC0148F9E6A80000201C
:102360009C000020040000201800002010B5002070
:10237000FEF708FD10BD00000020FEF7E6FCFFF7A9
:10238000F5FFFFF74BF9FFF785F8FEF739FD00F091
:10239000C5F80020FEF71CFD05213C2000F02CF8BC
:1023A0004FF4487000F057F94FF4487000F002F90C
:1023B0000020FEF719FD03A0FEF7F4F801E000F09D
:1023C0002DFEFCE7414C4C20436F6E66696720444C
:1023D0006F6E650D0A0000001CB5044604480090AD
:1023E00001946A4602210348FFF780FD1CBD0000EE
:1023F0000DF0060D008002082DE9F04387B0074676
:102400000C46DFF80481002C01DD642C04DD4FF064
:10241000FF3007B0BDE8F0833C480068B0FBF8F03F
:10242000401E1FFA80F9B8FBF7F0451E05FB04F0CB
:102430006421B0FBF1F0461E16B94FF0FF30E8E71B
:1024400033480068D0B901203149086040F60340A4
:1024500000F03AFA4FF40043002202212D48FFF722
:1024600022FE4FF40043022200212A48FFF742FED9
:102470004FF4004202212748FFF7DEFD41F202003F
:1024800000F022FA4FF0807000F04EFA224800F07F
:10249000AFFCADF800900020ADF80200ADF80400EC
:1024A0000295ADF806008DF80C0069461A4800F058
:1024B00065FD0020ADF814000120ADF810000020EB
:1024C000ADF81600ADF81200ADF81800ADF81A001E
:1024D00004AA0321104800F027FB324603210E48CE
:1024E00000F045FC602203210B4800F013FC0022A1
:1024F0000321094800F04EFC074800F00FFB064896
:1025000000F036FD002084E740420F0094000020D8
:1025100074000020000C02400008004010B540F696
:10252000044000F0D1F94FF40063002201211F485C
:10253000FFF7B9FD4FF40063022200211B48FFF7AB
:10254000D9FD4FF40060194988614FF4FA70FFF724
:102550002FF840F6014000F0B7F940F6014000F0D6
:10256000B3F94FF48063002201211148FFF79BFD6E
:102570004FF48063022200210D48FFF7BBFD4FF4AA
:102580000063002201210A48FFF78DFD4FF400632C
:10259000022200210648FFF7ADFD4FF48060044998
:1025A000183108604000086010BD000000100240B3
:1025B00000040240F8B5054618A000680090002409
:1025C00028E004F128004006060E01236A46194659
:1025D0003046FFF733F99DF80000FF2800D118E0DE
:1025E0009DF800100EA0FDF7DDFF2946002000F049
:1025F0001DF82946012000F019F801236A46194602
:102600003046FFF71BF99DF8001005A0FDF7CAFF43
:1026100000BF641C082CD4DBF8BD0000FF000000E4
:10262000726561642025780A0D00000038B5054602
:102630000C4615B11F20009001E0102000900123EE
:102640006A4619462820FFF749FA002C02DD204689
:10265000FEF7AEFF38BD10B504464FF4FA71002006
:1026600000F006F84FF4FA71012000F001F810BDF7
:1026700070B505460C4625B14FF480400649086008
:1026800004E04FF48040044910310860002C02DD62
:102690002046FEF78DFF70BD180C024000F01F02AF
:1026A00001219140024A431142F823107047000073
:1026B00080E100E02DE9F04103460D461646002476
:1026C0000027A0462A48006800F4E060B0F5E06FFB
:1026D00003D100BF4FF0040830E02548006800F443
:1026E000E060B0F5C06F03D101274FF0030825E08B
:1026F0001F48006800F4E060B0F5A06F02D1022727
:10270000B8461BE01A48006800F4E060B0F5806F3E
:1027100003D103274FF0010810E01548006800F4CA
:10272000E060B0F5407F03D104274FF0000805E0DA
:102730004FF4A06000F020F80227B846C7F104006B
:1027400005FA00F4C8F104010F20C84030400443EA
:1027500024010848C45403F01F0101208840591186
:102760004FF0E02202EB8101C1F80001BDE8F081E9
:102770000CED00E000E400E002490143024A116070
:10278000704700000000FA050CED00E0034A0A4023
:102790000243034B1A60BFF34F8F704780FFFF1F48
:1027A00008ED00E02DE9F04F8CB0064600200A90BD
:1027B0003EA090E8004CC068CDE905BECDF810A061
:1027C00007900FF2EC0ADAE9000ACDE9020A0FF2EB
:1027D000E00ADAE9000ACDE9000A38480068C0F3E7
:1027E00081000B900B9820B1012804D0022828D139
:1027F00003E0334927E0334925E03048001F0068F3
:1028000000F03F072D48001F0068C0F3881C2B48CC
:10281000001F0068C0F30140401C4FEA40092748F0
:10282000001F006800F48008B8F5800F01D1254B27
:1028300000E0234BB3FBF7F000FB0CF0B0FBF9F129
:1028400001E01F4900BF00BF1C480068C0F303142B
:1028500004A8055D21FA05F218480068C0F3822437
:1028600002A8055D22FA05F0099014480068C0F33B
:1028700042341DF8045022FA05F0089036B1012EBA
:1028800006D0022E06D0032E0AD106E00A9108E0F7
:102890000A9206E009980A9003E008980A9000E07E
:1028A00000BF00BF0A980CB0BDE8F08F0000000028
:1028B000000000000102030406070809083802406E
:1028C0000024F40000127A00064901EB9011096817
:1028D00000F01F0301229A401143024A02EB9012BA
:1028E0001160704700380240064901EB90110968F9
:1028F00000F01F0301229A409143024A02EB90121A
:102900001160704700380240064901EB90110968D8
:1029100000F01F0301229A401143024A02EB901279
:10292000116070470038024000F18071491C05D1E8
:10293000054909680140044A116004E00249096838
:102940000143014A116070478C38024001460B294F
:1029500003D8F82000EAC1007047172904D8081DE1
:10296000F82202EAC000F7E71B2905D8A1F10C0004
:10297000F82202EAC000EFE700BFFEE72DE9F041D0
:1029800004460E4617461D460CA0FDF70BFE34B953
:102990002B463A4631460C48FEF79CFC0BE0012CD6
:1029A00006D12B463A4631460848FEF793FC02E032
:1029B0000020BDE8F0812846FBE700006C656E2032
:1029C00069732025780D0A0000640040006800400B
:1029D00000203949096841F48031374A116000BF4D
:1029E0003549096811F4003F05D10146401CA1F5A5
:1029F0007F42FF3AF4D13049096811F4003F01D118
:102A000000BFFEE72C494031096841F080512A4A55
:102A1000403211602949096841F44041274A116058
:102A2000254908310968244A0832116011460968AD
:102A300041F4004111601146096841F4A051116050
:102A40001F49121F1160111F096841F08071121F88
:102A5000116000BF1849096811F0007FFAD01749CA
:102A6000096841F48031154A116000BF1349496873
:102A700011F4803FFAD01149096841F400310F4A3E
:102A8000116000BF0D49496811F4003FFAD00A49AE
:102A90000831096821F00301074A08321160114624
:102AA000096841F00201116000BF0349083109685B
:102AB00011F0080FF9D07047003802400070004054
:102AC0000854400710B5FFF783FF10BD10B512483A
:102AD00000684FF47A71B0FBF1F4601EB0F1807FB2
:102AE00001D301200FE0601E4FF0E02148610F216B
:102AF0004FF0FF30FDF734FC00204FF0E0218861FB
:102B000007200861002008B100BFFEE70021481E31
:102B1000FDF726FC10BD000094000020016841F084
:102B2000800101607047000010B531B101293FD02C
:102B300002297DD003297CD1BFE0036A23F0010381
:102B40000362836923F003038361036A14882343C8
:102B50000362036A23F002030362036A9488234337
:102B600003626A4B984202D0694B98421FD1036AB4
:102B700023F004030362036A548823430362036A55
:102B800023F008030362036AD48823430362436883
:102B900023F480734360436814892343436043688C
:102BA00023F4007343604368548923434360ABE0DC
:102BB000036A23F010030362836923F44073836183
:102BC000036A148843EA04130362036A23F02003B0
:102BD0000362036A948843EA041303624B4B9842EE
:102BE00002D04B4B984226D1036A23F04003036284
:102BF000036A548843EA04130362036A23F08003E0
:102C00000362036AD48843EA04130362436823F42B
:102C1000806343604368148943EA840343604368E4
:102C200023F4006343604368548943EA840301E06A
:102C300002E068E0436067E0036A23F480730362A4
:102C4000C36923F00303C361036A148843EA0423BE
:102C50000362036A23F400730362036A948843EAFD
:102C600004230362294B984202D0294B984223D176
:102C7000036A23F480630362036A548843EA0423EB
:102C80000362036A23F400630362036AD48843EA9D
:102C900004230362436823F4805343604368148928
:102CA00043EA04134360436823F4005343604368DA
:102CB000548943EA0413436026E0036A23F48053F3
:102CC0000362C36923F44073C361036A148843EA4F
:102CD00004330362036A23F400530362036A948893
:102CE00043EA04330362094B984202D0084B9842EE
:102CF00008D1436823F4804343604368148943EA5E
:102D00008413436000E000BF00BF10BD000001401D
:102D10000004014031B101290CD0022913D003294C
:102D200022D118E0836923F0700383618369134320
:102D300083611AE0836923F4E0438361836943EA92
:102D40000223836111E0C36923F07003C361C36987
:102D50001343C36109E0C36923F4E043C361C3695A
:102D600043EA0223C36100E000BF00BF704731B1F6
:102D7000012906D0022906D0032908D105E04263C3
:102D800006E0826304E0C26302E0026400E000BF88
:102D900000BF704731B101290CD0022913D003299B
:102DA00022D118E0836923F0080383618369134308
:102DB00083611AE0836923F400638361836943EAD2
:102DC0000223836111E0C36923F00803C361C3696F
:102DD0001343C36109E0C36923F40063C361C3699A
:102DE00043EA0223C36100E000BF00BF7047000058
:102DF00010B504465B49601A8C426ED019DC5A4902
:102E0000A4EB01008C424DD009DCB4F1804F2ED0F0
:102E10005648201834D0B0F5806F71D139E0B0F544
:102E2000806F48D0B0F5006F4ED0B0F5406FF4D150
:102E30007AE0B0F5923F5AD009DCB0F5806F72D0DD
:102E4000B0F5644F0AD0B0F5684F59D146E0B0F5FF
:102E5000943F56D0B0F5963F52D15BE04FF41060EE
:102E6000FFF752FD4FF41060FFF73EFD78E04FF49E
:102E70000060FFF749FD4FF40060FFF735FD6FE09C
:102E800040F60100FFF740FD40F60100FFF72CFD82
:102E900066E040F60200FFF737FD40F60200FFF75C
:102EA00023FD5DE040F60300FFF72EFD40F6030032
:102EB000FFF71AFD54E040F60400FFF725FD40F649
:102EC0000400FFF711FD4BE040F60500FFF71CFD85
:102ED00040F60500FFF708FD42E02EE040F6011045
:102EE000FFF712FD40F60110FFF7FEFC38E04FF44B
:102EF0001160FFF709FD4FF41160FFF7F5FC2FE0BB
:102F00002DE040F61110FFF7FFFC40F61110FFF71F
:102F1000EBFC25E040F61210FFF7F6FC40F612102D
:102F2000FFF7E2FC1CE011E040F60600FFF7ECFCC6
:102F300040F60600FFF7D8FC12E040F60700FFF766
:102F4000E3FC40F60700FFF7CFFC09E040F608007D
:102F5000FFF7DAFC40F60800FFF7C6FC00E000BF10
:102F600000BF10BD001C0040000C004000FCFFBF73
:102F7000016841F001010160704700000A88826227
:102F80001D4A90420ED0B0F1804F0BD01B4A9042A8
:102F900008D01B4A904205D01A4A904202D01A4AE1
:102FA00090420BD1026822F07002026002684B88E6
:102FB0001A43026002688B881A4302608A68C26200
:102FC000124A90420AD0124A904207D0026822F474
:102FD000407202600268CB881A430260064A90423F
:102FE00002D0094A904201D10A7B0263426942F051
:102FF00001024261704700000000014000040040EF
:1030000000080040000C0040000401400010004097
:1030100000140040C2680A43C2607047F8B500253A
:1030200069462448FEF75AFA05461DB1214822494F
:1030300008600AE069462148FEF750FA05461DB1CE
:103040001E481D49086000E0F8BD28460099FFF7BA
:1030500073F80446A06800B9F6E7A7681648006848
:10306000174908606668084600681249884204D01B
:10307000134800681149884205D13A463146104844
:103080000068FEF713FA0F48006880B100BFBFF375
:103090004F8F0D48006800F4E0600C490843001DA4
:1030A00009490860BFF34F8F00BF00BFFEE700BFB4
:1030B000CAE700000010014018000020004C00404A
:1030C0001C000020040000200CED00E00000FA05C8
:1030D0002DE9F04704460D460027B846B9460026BC
:1030E0003349601A8C4235D00CDC324820181DD090
:1030F000B0F5806F1FD0B0F5006F21D0B0F5406FF4
:1031000032D122E0B0F5806F29D0B0F5184F03D04E
:10311000B0F51C4F28D104E00320FFF743FB07461E
:1031200023E00320FFF73EFB07461EE00220FFF7E7
:1031300039FB074619E00220FFF734FB074614E08D
:103140000220FFF72FFB07460FE00220FFF72AFBC4
:1031500007460AE00220FFF725FB074605E00220AC
:10316000FFF720FB074600E000BF00BFE06810F457
:10317000004F0ED0780000EB5500B0FBF5F64FF68F
:10318000F07006EA0008C6F3420948EA0900A060A8
:103190000CE007EB5500B0FBF5F64FF6F07006EAD1
:1031A000000806F00F0948EA0900A060BDE8F087B2
:1031B0000078004000BCFFBF01464868C0F308002B
:1031C0007047C1F3080242607047000010B5044622
:1031D0003349601A8C424DD00CDC324820181CD088
:1031E000B0F5806F22D0B0F5006F31D0B0F5406FF0
:1031F00052D136E0B0F5806F45D0B0F5184F03D00E
:10320000B0F51C4F48D11AE040F60410FFF77CFBE4
:1032100040F60410FFF768FB3FE040F61100FFF7AF
:1032200073FB40F61100FFF75FFB36E040F612003B
:10323000FFF76AFB40F61200FFF756FB2DE040F661
:103240000510FFF761FB40F60510FFF74DFB24E08A
:1032500040F61300FFF758FB40F61300FFF744FB5E
:103260001BE040F61400FFF74FFB40F61400FFF799
:103270003BFB12E040F61E00FFF746FB40F61E0047
:10328000FFF732FB09E040F61F00FFF73DFB40F679
:103290001F00FFF729FB00E000BF00BF10BD0000CA
:1032A0000078004000BCFFBFC16841F40051C1601C
:1032B000704710B5024602EB9110006801F01F0440
:1032C0000123A340184201D0012010BD0020FCE7DB
:1032D00010B500EB9112126801F01F040123A34006
:1032E0001A4300EB91131A6010BD10B500EB915218
:1032F0001268C1F304440123A3409A4300EB9153A5
:103300001A6010BD0A460021C16821F00401114372
:10331000C16070470A460021C16821F008011143CD
:10332000C160704744330108000000209C00000089
:10333000C4050108E03301089C000020DC0A0000FD
:10334000D40501080000000000000000000000009B
:10335000000000000000000000000000000000006D
:10336000000000000008024000200000020C0000E5
:10337000000000000000000000000000000000004D
:1033800004111310000C020C0700000008000000DC
:10339000000200000004000000040000000800001B
:1033A000000002400008024000C2010000C201000B
:1033B00025340001000000000000000000000000B3
:1033C000000802400008024004000000080000005D
:1033D000020C000000000000007A030A0000000058
:04000005080101AD40
:00000001FF
